{
  "contractName": "Detweet",
  "abi": [
    {
      "constant": false,
      "inputs": [
        {
          "name": "text",
          "type": "string"
        }
      ],
      "name": "addTweet",
      "outputs": [],
      "payable": false,
      "stateMutability": "nonpayable",
      "type": "function"
    },
    {
      "constant": true,
      "inputs": [
        {
          "name": "text",
          "type": "string"
        }
      ],
      "name": "getLikes",
      "outputs": [
        {
          "name": "",
          "type": "uint256"
        }
      ],
      "payable": false,
      "stateMutability": "view",
      "type": "function"
    },
    {
      "constant": false,
      "inputs": [
        {
          "name": "text",
          "type": "string"
        }
      ],
      "name": "likeTweet",
      "outputs": [],
      "payable": false,
      "stateMutability": "nonpayable",
      "type": "function"
    },
    {
      "inputs": [],
      "payable": false,
      "stateMutability": "nonpayable",
      "type": "constructor"
    },
    {
      "anonymous": false,
      "inputs": [
        {
          "indexed": false,
          "name": "from",
          "type": "address"
        },
        {
          "indexed": false,
          "name": "text",
          "type": "string"
        }
      ],
      "name": "TweetAdded",
      "type": "event"
    },
    {
      "anonymous": false,
      "inputs": [
        {
          "indexed": false,
          "name": "text",
          "type": "string"
        },
        {
          "indexed": false,
          "name": "likes",
          "type": "uint256"
        }
      ],
      "name": "TweetLiked",
      "type": "event"
    }
  ],
  "bytecode": "0x6060604052341561000f57600080fd5b6108448061001e6000396000f300606060405260043610610057576000357c0100000000000000000000000000000000000000000000000000000000900463ffffffff16806359ee12bc1461005c57806374bfb003146100b9578063a13ac17f1461012a575b600080fd5b341561006757600080fd5b6100b7600480803590602001908201803590602001908080601f01602080910402602001604051908101604052809392919081815260200183838082843782019150505050505091905050610187565b005b34156100c457600080fd5b610114600480803590602001908201803590602001908080601f01602080910402602001604051908101604052809392919081815260200183838082843782019150505050505091905050610327565b6040518082815260200191505060405180910390f35b341561013557600080fd5b610185600480803590602001908201803590602001908080601f01602080910402602001604051908101604052809392919081815260200183838082843782019150505050505091905050610471565b005b6000805480600101828161019b919061069b565b91600052602060002090600302016000606060405190810160405280858152602001600081526020013373ffffffffffffffffffffffffffffffffffffffff16815250909190915060008201518160000190805190602001906101ff9291906106cd565b506020820151816001015560408201518160020160006101000a81548173ffffffffffffffffffffffffffffffffffffffff021916908373ffffffffffffffffffffffffffffffffffffffff1602179055505050507fd4c26908d68361d24efaf269027f9f39466ae9df18f437dc3758d60c19893ba63382604051808373ffffffffffffffffffffffffffffffffffffffff1673ffffffffffffffffffffffffffffffffffffffff16815260200180602001828103825283818151815260200191508051906020019080838360005b838110156102e95780820151818401526020810190506102ce565b50505050905090810190601f1680156103165780820380516001836020036101000a031916815260200191505b50935050505060405180910390a150565b600080600090505b60008054905081101561046a57826040518082805190602001908083835b602083101515610372578051825260208201915060208101905060208303925061034d565b6001836020036101000a0380198251168184511680821785525050505050509050019150506040518091039020600019166000828154811015156103b257fe5b9060005260206000209060030201600001604051808280546001816001161561010002031660029004801561041e5780601f106103fc57610100808354040283529182019161041e565b820191906000526020600020905b81548152906001019060200180831161040a575b5050915050604051809103902060001916141561045d5760008181548110151561044457fe5b906000526020600020906003020160010154915061046b565b808060010191505061032f565b5b50919050565b60008090505b60008054905081101561069757816040518082805190602001908083835b6020831015156104ba5780518252602082019150602081019050602083039250610495565b6001836020036101000a0380198251168184511680821785525050505050509050019150506040518091039020600019166000828154811015156104fa57fe5b906000526020600020906003020160000160405180828054600181600116156101000203166002900480156105665780601f10610544576101008083540402835291820191610566565b820191906000526020600020905b815481529060010190602001808311610552575b5050915050604051809103902060001916141561068a57600160008281548110151561058e57fe5b906000526020600020906003020160010154016000828154811015156105b057fe5b9060005260206000209060030201600101819055507f6e08d8a03aa5b7d0a3ac1e79d2b2b005d674e64d33f72c167e3a44bd18e28b32826000838154811015156105f657fe5b9060005260206000209060030201600101546040518080602001838152602001828103825284818151815260200191508051906020019080838360005b8381101561064e578082015181840152602081019050610633565b50505050905090810190601f16801561067b5780820380516001836020036101000a031916815260200191505b50935050505060405180910390a15b8080600101915050610477565b5050565b8154818355818115116106c8576003028160030283600052602060002091820191016106c7919061074d565b5b505050565b828054600181600116156101000203166002900490600052602060002090601f016020900481019282601f1061070e57805160ff191683800117855561073c565b8280016001018555821561073c579182015b8281111561073b578251825591602001919060010190610720565b5b50905061074991906107ab565b5090565b6107a891905b808211156107a4576000808201600061076c91906107d0565b60018201600090556002820160006101000a81549073ffffffffffffffffffffffffffffffffffffffff021916905550600301610753565b5090565b90565b6107cd91905b808211156107c95760008160009055506001016107b1565b5090565b90565b50805460018160011615610100020316600290046000825580601f106107f65750610815565b601f01602090049060005260206000209081019061081491906107ab565b5b505600a165627a7a72305820893903423ec96e3cd271793729c6e49a56a2f06f67ac2f3a5f08fb4c1ec35a3c0029",
  "source": "pragma solidity ^0.4.18;\n\ncontract Detweet {\n  struct Tweet {\n    string text;\n    uint likes;\n    address creator;\n  }\n\n  Tweet[] tweets;\n\n  event TweetAdded(address from, string text);\n  event TweetLiked(string text, uint likes);\n\n  function Detweet () public {\n\n  }\n\n  function addTweet (string text) public {\n    tweets.push(\n      Tweet(text, 0, msg.sender)\n    );\n\n    TweetAdded(msg.sender, text);\n  }\n\n  function likeTweet (string text) public {\n    for (uint index = 0; index < tweets.length; index++) {\n      if (keccak256(tweets[index].text) == keccak256(text)) {\n        tweets[index].likes = tweets[index].likes + 1;\n        TweetLiked(text, tweets[index].likes);\n      }\n    }\n  }\n\n  function getLikes (string text) public view returns (uint) {\n    for (uint index = 0; index < tweets.length; index++) {\n      if (keccak256(tweets[index].text) == keccak256(text)) {\n        return tweets[index].likes;\n      }\n    }\n  }\n}",
  "sourcePath": "/Users/petars/projects/qlabs/detweet/contracts/Detweet.sol",
  "compiler": {
    "name": "solc",
    "version": "0.4.18+commit.9cf6e910.Emscripten.clang"
  },
  "schemaVersion": "1.0.1",
  "updatedAt": "2018-02-11T11:05:37.603Z"
}